:060000000A128A11EE2F26
:100D4200831203138C1EA62EA72EA12E8C121A0814
:100D52000800203083160313990098168312031398
:100D620098171816831603130713871708007E08AF
:100D72008A007F0882000A128A11B8260A128A1192
:100D82008000840A04087D0603190034FF0A03194F
:100D9200FE0ABC2E533465347234693461346C34C7
:100DA200203449346E347434653472347234753498
:100DB2007034743400344B344534593420343D3467
:100DC200203400348316031386010710871007119D
:100DD20002300A128A1126270A128A1128300A12B0
:100DE2008A1126270A128A110C300A128A11262722
:100DF2000A128A1108000A128A11E3260A128A11BB
:100E02000A128A11AA260A128A110A128A1185273F
:100E12000A128A110A128A11A1260A128A11F700ED
:100E220077080319152F162F0B2FC6300A128A11B5
:100E320026270A128A1177080A128A1155270A12DE
:100E42008A110B2F0A128A110028F200831203134F
:100E5200071087107208F039860007150D30F1006F
:100E6200FB30F000F00B332FF10B332F382F8312AE
:100E7200031307117208F00003300310F00DFF3E58
:100E8200031D3E2F0310700DF039860007150D303B
:100E9200F100FB30F000F00B4C2FF10B4C2F512FD7
:100EA2008312031307110800F200831203130714BD
:100EB20087107208F039860007150D30F100FB30FB
:100EC200F000F00B622FF10B622F672F83120313D6
:100ED20007117208F00003300310F00DFF3E031DEE
:100EE2006D2F0310700DF039860007150D30F100DB
:100EF200FB30F000F00B7B2FF10B7B2F802F831246
:100F0200031307110710080080300A128A112627DE
:100F12000A128A11203084003930F3000408F400E8
:100F22001130F5007308840083130008F600F30AF9
:100F32007408840076088000F40AF50B932F83125C
:100F42000313B8013808203E8400831300080A12F4
:100F52008A1155270A128A110130FF007F08831275
:100F62000313B80710303802031CB82FB92FA32F70
:100F7200C0300A128A1126270A128A1131308400DF
:100F82004A30F3000408F4000730F50073088400C7
:100F920083130008F600F30A7408840076088000C0
:100FA200F40AF50BC72F83120313B8013808313E38
:100FB2008400831300080A128A1155270A128A1123
:100FC2000130FF007F0883120313B807063038028E
:100FD200031CEC2FED2FD72F080083135130FD0097
:100FE2000630FE00CB30FF00393084000A128A112D
:0E0FF200BC260A128A1183010A128A11FC2EF3
:02400E00BA3FB7
:00000001FF
