:060000000A128A11EE2F26
:100CF6007E088A007F0882000A128A117B260A1261
:100D06008A118000840A04087D0603190034FF0A4C
:100D16000319FE0A7F2E0A128A11A4260A128A11C4
:100D26000A128A1185270A128A11831603130814D8
:100D36000A128A1135270A128A119B2E0A128A1163
:100D46000028831603138601870102300A128A11CE
:100D560006270A128A1128300A128A1106270A1251
:100D66008A110C300A128A1106270A128A11080003
:100D760043346F346E3464346934743469346F3494
:100D86006E3420343A34003453344F344E342034E5
:100D96003A342934293400344F3446344634003446
:100DA6004F344E3420340034F200831203130714F8
:100DB60087107208F039860007150D30F100FB30F8
:100DC600F000F00BE42EF10BE42EE92E8312031350
:100DD60007117208F00003300310F00DFF3E031DEB
:100DE600EF2E0310700DF039860007150D30F10057
:100DF600FB30F000F00BFD2EF10BFD2E022F8312BF
:100E0600031307110800F20083120313071087105B
:100E16007208F039860007150D30F100FB30F0003E
:100E2600F00B132FF10B132F182F83120313071137
:100E36007208F00003300310F00DFF3E031D1E2F55
:100E46000310700DF039860007150D30F100FB30E8
:100E5600F000F00B2C2FF10B2C2F312F83120313E4
:100E66000711080083120313081C3A2F3B2F602F2B
:100E7600CC300A128A1106270A128A11831203132A
:100E86003B08F6003A08F5003908F4003808F30084
:100E9600FB017B08733E840000080A128A11D726DC
:100EA6000A128A110130FF007F08FB0703307B021C
:100EB600031C5E2F5F2F4C2F842FCC300A128A1111
:100EC60006270A128A11831203133708FA00360816
:100ED600F9003508F8003408F700FB017B08773E77
:100EE600840000080A128A11D7260A128A110130D4
:100EF600FF007F08FB0703307B02031C832F842F30
:100F0600712F080080300A128A1106270A128A11E8
:100F1600483084002C30F3000408F4000830F50053
:100F26007308840083130008F600F30A740884002B
:100F360076088000F40AF50B932F83120313D00171
:100F46005008483E8400831300080A128A11D726E7
:100F56000A128A110130FF007F0883120313D0079B
:100F660007305002031CB82FB92FA32FC0300A1226
:100F76008A1106270A128A113C3084002030F300B9
:100F86000408F4000C30F50073088400831300088D
:100F9600F600F30A7408840076088000F40AF50B5C
:100FA600C72F83120313D00150083C3E84008313DD
:100FB60000080A128A11D7260A128A110130FF0088
:100FC6007F0883120313D0070B305002031CEC2F4B
:100FD600ED2FD72F080083133C30FD000630FE00AE
:100FE600BB30FF00203084000A128A117F260A12C5
:0A0FF6008A1183010A128A118E2E5F
:02400E00BA3FB7
:00000001FF
