:060000000A128A1110280B
:10000800FE00030E83120313B8000A08B9007F0824
:10001800BA000A128A158F2A0A128A111328831322
:10002800D130FD000930FE009730FF00B930840060
:100038000A128A1571210A128A1183160313D10133
:10004800D201D301D401D50183120313CC01CD0110
:10005800CE01CF01D001D101D201D30183010A120F
:100068008A15AF29831203134708803983160313AF
:10007800A50083120313470883160313A000200763
:10008800AB0083120313C61F4A284B284E28831639
:1000980003132B14831603132B080319542855280C
:1000A80067282B0A031D59285A2864280030831210
:1000B8000313C7000030C6000030C5000030C4007C
:1000C8008312C6177128003083120313C70000304B
:1000D800C6000030C5000030C4004B088039FF005E
:1000E8007F0883160313A506831203134B08831690
:1000F8000313A0002007A60083120313CA1F852834
:1001080086288928831603132614831603132608C2
:1001180003198F289028A228260A031D94289528B9
:100128009F28003083120313CB000030CA00003030
:10013800C9000030C8008312CA17AC2800308312E7
:100148000313CB000030CA000030C9000030C800DB
:100158008316031326080319B228B328B8282B08D6
:10016800031DB728B828C328003083120313C7001B
:100178000030C6000030C5000030C400F62B8312E2
:1001880003134408BB004A080A128A11D1270A122D
:100198008A11831203133C0883160313B1008312D8
:1001A80003133B0883160313B0003008A000A10115
:1001B800A201A3012308AA002208A9002108A80077
:1001C8002008A7003108A000A101A201A30123086B
:1001D800AF002208AE002108AD002008AC00831251
:1001E80003134508BB0049080A128A11D1270A12CD
:1001F8008A11831203133C0883160313B100831278
:1002080003133B0883160313B0003008A000A101B4
:10021800A201A3012008A707210803110318013E22
:1002280003191729A807220803110318013E031907
:100238001E29A907230803110318013E03192529BC
:10024800AA073108A000A101A201A3012008AC0758
:10025800210803110318013E03193329AD072208A9
:1002680003110318013E03193A29AE0723080311A5
:100278000318013E03194129AF07831203134608E7
:10028800BB0048080A128A11D1270A128A11831260
:1002980003133C0883160313B100831203133B08AE
:1002A80083160313B0003008A000A101A201A30126
:1002B8002008A707210803110318013E031965291F
:1002C800A807220803110318013E03196C29A9077E
:1002D800230803110318013E03197329AA073108DB
:1002E800A000A101A201A3012008AC072108031165
:1002F8000318013E03198129AD07220803110318C9
:10030800013E03198829AE07230803110318013E8B
:1003180003198F29AF070830A0000310A70DA80DF7
:10032800A90DAA0DA00B9129831203134508BB0040
:1003380048080A128A11D1270A128A118312031354
:100348003C0883160313B100831203133B0883167A
:100358000313B0003008A0003108A100A201A301D6
:100368002008A707210803110318013E0319BD2916
:10037800A807220803110318013E0319C429A90775
:10038800230803110318013E0319CB29AA07831276
:1003980003134408BB0049080A128A11D1270A121C
:1003A8008A11831203133C0883160313B1008312C6
:1003B80003133B0883160313B0003008A00031086C
:1003C800A100A201A3012008A7072108031103180F
:1003D800013E0319F029A807220803110318013E5A
:1003E8000319F729A907230803110318013E031964
:1003F800FE29AA070830A0000310A70DA80DA90D13
:10040800AA0DA00B002A831203134408BB00480856
:100418000A128A11D1270A128A11831203133C087F
:1004280083160313B100831203133B0883160313C7
:10043800B0003008A0003108A100A201A3012008E3
:10044800A707210803110318013E03192C2AA8073E
:10045800220803110318013E0319332AA9072308A8
:1004680003110318013E03193A2AAA07831203133A
:100478004508BB004A080A128A11D1270A128A11B4
:10048800831203133C0883160313B100831203136A
:100498003B0883160313B0003008A0003108A10000
:1004A800A201A3012008AC07210803110318013E8B
:1004B80003195F2AAD07220803110318013E031927
:1004C800662AAE07230803110318013E03196D2A93
:1004D800AF07831203134608BB0049080A128A11A2
:1004E800D1270A128A11831203133C0883160313B7
:1004F800B100831203133B0883160313B0003008BE
:10050800A0003108A100A201A3012008AC0721081E
:1005180003110318013E0319922AAD07220803119B
:100528000318013E0319992AAE072308031103187B
:10053800013E0319A02AAF07831203134608BB0024
:100548004A080A128A11D1270A128A118312031340
:100558003C0883160313B100831203133B08831668
:100568000313B0003008A0003108A100A201A301C4
:1005780008300310A00DA10DA20DA30DFF3E031D11
:10058800BD2A2008AC07210803110318013E0319EE
:10059800CE2AAD07220803110318013E0319D52AF4
:1005A800AE07230803110318013E0319DC2AAF071D
:1005B8002708A0002808A1002908A2002A08A300EB
:1005C80018300310A30CA20CA10CA00CFF3E031DB5
:1005D800E52A2008AC07210803110318013E031976
:1005E800F62AAD07220803110318013E0319FD2A54
:1005F800AE07230803110318013E0319042BAF07A4
:100608000830A0000310A70DA80DA90DAA0DA00B76
:10061800062B2B082607A000A101A10D2008823E69
:10062800B00021080318013EFF3EB100382B01300D
:10063800A0000310AC0DAD0DAE0DAF0DA00B1D2B22
:10064800AA1F272B282B292B2C140130A0000310BC
:10065800A70DA80DA90DAA0DA00B2B2BFF30B007D5
:100668000318B10AFF30B107AE1F3B2B3C2B1B2BE5
:10067800A601AA1F402B412B5D2BFF302705A000A8
:10068800FF302805A100FF302905A2007F302A0588
:10069800A30023082204210420040319542B552BFA
:1006A800582BA601A60A5D2B2C1C5B2B5C2B5D2B03
:1006B800552B26080319612B622B932B0130AC07AD
:1006C800003003180130AD07003003180130AE07C1
:1006D800003003180130AF072F1C732B742B932B9A
:1006E8002C08A0002D08A1002E08A2002F08A300A6
:1006F8000130A400230DA30CA20CA10CA00CA40B88
:100708007E2B2308AF002208AE002108AD00200888
:10071800AC000130B0070318B10A0030B107310846
:10072800803AFF0080307F02031D9C2BFF3030028F
:10073800031C9F2BA02BAB2B7F3083160313AF001A
:100748008030AE000030AD000030AC00DC2B8316EA
:1007580003133108803AFF0080307F02031DB62B57
:10076800013030020318B92BBA2BC62B0030831680
:100778000313AF000030AE000030AD000030AC0015
:10078800A501DC2B831603133008AB00FF30AC0542
:10079800FF30AD057F30AE050030AF052B1CD52BE3
:1007A800D62BD72BAE172B08A0000310200CAF00B8
:1007B8002508FF007F08AF042F0883120313C70022
:1007C800831603132E0883120313C600831603131C
:1007D8002D0883120313C500831603132C088312F4
:1007E8000313C400080083120313420880398316D8
:1007F8000313A400831203134208C300430783169C
:100808000313AB0083120313C11F0B2C0C2C0F2CEA
:10081800831603132B14831603132B080319152CA3
:10082800162C292C2B0A031D1A2C1B2C252C0030C6
:1008380083120313C2000030C1000030C000003032
:10084800BF008312C117C201332C00308312031377
:10085800C2000030C1000030C0000030BF003E08B8
:100868008039FF007F0883160313A406831203133D
:100878003E08C300430783160313AC008312031317
:10088800BD1F472C482C4B2C831603132C1483169E
:1008980003132C080319512C522C652C2C0A031D08
:1008A800562C572C612C003083120313BE000030E5
:1008B800BD000030BC000030BB008312BD17BE0174
:1008C8006F2C003083120313BE000030BD000030CF
:1008D800BC000030BB003E083D043C043B04031D43
:1008E800762C772C942C0030C2000030C1000030E8
:1008F800C0000030BF008030C1047F30C2048316BE
:1009080003132408FF007F0883120313C20442085C
:10091800BE004108BD004008BC003F08BB007C2E5B
:10092800831603132B08031D9A2C9B2CA62C00302E
:1009380083120313BE000030BD000030BC0000303D
:10094800BB007C2E2B0883120313C300C401440888
:10095800C600831603132C08831203134302C50031
:10096800031CC60345087F3E83160313A5008312A4
:10097800031346080318013E003E83160313A6001E
:1009880083120313420883160313A300831203136D
:10099800410883160313A200831203134008831629
:1009A8000313A100831203133F0883160313A00047
:1009B800003083120313C2000030C1000030C000B1
:1009C8000030BF00003083160313AA000030A900CE
:1009D8000030A8000030A700AC01742D2C080319C2
:1009E800F62CF72C262D013083120313C3000310B5
:1009F80083160313A00DA10DA20DA30D83120313DB
:100A0800C30BFB2C0130C3000310BF0DC00DC10D7B
:100A1800C20DC30B082D83160313AA1F142D152D01
:100A2800182D831203133F1401308312C3000310DF
:100A380083160313A70DA80DA90DAA0D831203137E
:100A4800C30B1B2D83123E08831603132302031DB9
:100A5800432D831203133D08831603132202031D3B
:100A6800432D831203133C08831603132102031D2D
:100A7800432D831203133B08831603132002031C20
:100A8800462D472D702D2A17831203133B08831612
:100A98000313A002831203133C08031C3C0F552DBB
:100AA800582D83160313A102831203133D08031C58
:100AB8003D0F5F2D622D83160313A20283120313C9
:100AC8003E08031C3E0F692D6C2D83160313A302E9
:100AD80083120313831603130130FF007F08AC074A
:100AE8001A302C02031C792D7A2DF22C23082204AB
:100AF800210420040319812D822DAC2D2714AC2D3F
:100B08000130C3000310BF0DC00DC10DC20DC30BD2
:100B1800862D83160313AA1F922D932D962D8312CB
:100B280003133F1401308312C30003108316031309
:100B3800A70DA80DA90DAA0D83120313C30B992D98
:100B4800FF3083160313A5070318A60AFF30A6076C
:100B580083120313C11FB12DB22D842D83160313E5
:100B6800AC01AA1FB82DB92DE52DFF30270583123A
:100B78000313C300FF3083160313280583120313DE
:100B8800C400FF3083160313290583120313C5001D
:100B98007F30831603132A0583120313C600460801
:100BA8004504440443040319DA2DDB2DE02D831694
:100BB8000313AC01AC0AE52D3F1CE32DE42DE52D14
:100BC800DB2D831603132C080319EB2DEC2D212E96
:100BD800013083120313BF07003003180130C00728
:100BE800003003180130C107003003180130C20774
:100BF800421CFF2D002E212E3F08C3004008C400D0
:100C08004108C5004208C6000130C700460DC60CA1
:100C1800C50CC40CC30CC70B0A2E4608C2004508F5
:100C2800C1004408C0004308BF0001308316031305
:100C3800A5070318A60A0030A6078316031326087B
:100C4800803AFF0080307F02031D2C2EFF302502E2
:100C5800031C2F2E302E402EFF3083160313A500C1
:100C68000030A600003083120313C2000030C10018
:100C78000030C0000030BF00831603132608803AF6
:100C8800FF0080307F02031D4B2E01302502031820
:100C98004E2E4F2E602E83160313A501A601003099
:100CA80083120313C2000030C1000030C0000030BE
:100CB800BF0083160313A401831603132508AB0092
:100CC8002B1C672E682E6C2E83120313C117722EED
:100CD8007F30FF007F0883120313C10583160313B7
:100CE8002B0883120313C3000310430CC200832C88
:100CF8000800403083120313C7009C30C6006230DE
:100D0800C5004E30C4004F08CB004E08CA004D083D
:100D1800C9004C08C8000A128A1136200A128A1122
:100D280083120313470883160313B50083120313B2
:100D3800460883160313B400831203134508831669
:100D48000313B30083120313440883160313B2007A
:100D5800413083120313BE002030BD000030BC00B8
:100D68000030BB0083160313350883120313C20037
:100D780083160313340883120313C1008316031365
:100D8800330883120313C000831603133208831237
:100D98000313BF000A128A11F7230A128A11831259
:100DA80003133E0883160313B500831203133D088B
:100DB80083160313B400831203133C08831603132A
:100DC800B300831203133B0883160313B2003508DC
:100DD80083120313BE00831603133408831203130C
:100DE800BD0083160313330883120313BC00831654
:100DF8000313320883120313BB000A128A15CA238D
:100E08000A128A11831203133C0883160313D200B3
:100E1800831203133B0883160313D1000A3083128D
:100E28000313BB000030BC0083160313520883125F
:100E38000313BE0083160313510883120313BD0066
:100E48000A128A1534220A128A11831203133B08E4
:100E580083160313D3000A3083120313BB00003038
:100E6800BC0083160313520883120313BE008316B3
:100E78000313510883120313BD000A128A15F422C2
:100E88000A128A11831203133C0883160313D20033
:100E9800831203133B0883160313D1000A3083120D
:100EA8000313BB000030BC008316031352088312DF
:100EB8000313BE0083160313510883120313BD00E6
:100EC8000A128A1534220A128A11831203133B0864
:100ED80083160313D4000A3083120313BB000030B7
:100EE800BC0083160313520883120313BE00831633
:100EF8000313510883120313BD000A128A15F42242
:100F08000A128A11831203133C0883160313D200B2
:100F1800831203133B0883160313D1000A3083128C
:100F28000313BB000030BC0083160313520883125E
:100F38000313BE0083160313510883120313BD0065
:100F48000A128A1534220A128A11831203133B08E3
:100F580083160313D500CD300A128A15D1210A123F
:100F68008A11831603135508303E0A128A15022285
:100F78000A128A11831603135408303E0A128A157E
:100F880002220A128A11831603135308303E0A12EA
:100F98008A1502220A128A11080083120313C30059
:100FA800BF01C0013B08BD00BE013D08C1003E08AD
:100FB800C200431CE02FE12FE72F4108BF070318A9
:100FC800C00A4208C00701300310C10DC20DFF3E20
:100FD800031DE82F0310C30C4308031DF42FF52F3E
:0C0FE800DD2F4008BC003F08BB000800E3
:1012BC008B170B17831603130C1741308312031370
:1012CC009F008E30831603139F00051408007E08C0
:1012DC008A007F0882000A128A156D210A128A156B
:1012EC008000840A04087D0603190034FF0A0319E0
:1012FC00FE0A7129831603138601870102300A1234
:10130C008A15D1210A128A1528300A128A15D12180
:10131C000A128A150C300A128A15D1210A128A1562
:10132C000800543465346D3470346534723461346F
:10133C0074347534723465343A3400344134443482
:10134C0043342034563461346C34753465343A3457
:10135C0000340A128A1580210A128A150A128A157B
:10136C005E210A128A150A128A155D230A128A1541
:10137C00831203131F0804389F000A128A15422493
:10138C000A128A150A128A117D260A128A15BE299A
:10139C000A128A11102883120313BD00071087103C
:1013AC003D08F039860007150D3083120313BC007D
:1013BC00FB30BB00BB0BE029BC0BE02983120313F1
:1013CC0007113D08BB0003300310BB0DFF3E031D8E
:1013DC00EA2903103B0DF039860007150D308312F6
:1013EC000313BC00FB30BB00BB0BFA29BC0BFA2966
:1013FC00831203130711080083120313BD00071493
:10140C0087103D08F039860007150D308312031341
:10141C00BC00FB30BB00BB0B112ABC0B112A831286
:10142C00031307113D08BB0003300310BB0DFF3E37
:10143C00031D1B2A03103B0DF039860007150D30D8
:10144C0083120313BC00FB30BB00BB0B2B2ABC0B61
:10145C002B2A83120313071107100800831203139E
:10146C00C001BE1F3A2A3B2A422ABD09BE09BD0A49
:10147C000319BE0AC001C00ABC1F452A462A4B2AC2
:10148C00BB09BC09BB0A0319BC0A3B083C04031981
:10149C00502A512A802ABF01BF0A5F2A013003104B
:1014AC00BB0DBC0DFF3E031D552A0130FF007F080C
:1014BC00BF07BC1F622A632A542A3C083E02031D44
:1014CC00692A3B083D02031C6C2A6D2A732A3B08CF
:1014DC00BD023C08031CBE03BE0201300310BC0C51
:1014EC00BB0CFF3E031D742A0130BF02031D7F2A73
:1014FC00802A632A40080319842A852A8A2ABD096E
:10150C00BE09BD0A0319BE0A3E08BC003D08BB005B
:10151C0008000C1F922A932AEB2A0C131E08B40005
:10152C00B5013408B500B4013408F0003508F100F9
:10153C000030F11BFF30F200F30001300A128A1563
:10154C00F0240A128A15730883120313CF00720851
:10155C00CE007108CD007008CC004F08A3004E08D7
:10156C00A2004D08A1004C08A000831603131E080E
:10157C0083120313B400B501B601B7013708F300A9
:10158C003608F2003508F1003408F00001300A1278
:10159C008A15F0240A128A15730883120313A70004
:1015AC007208A6007108A5007008A4000A128A151A
:1015BC00A8250A128A15831203132308CF002208C8
:1015CC00CE002108CD002008CC003A08FF003908D5
:1015DC008A00380E8300FE0E7E0E09008312031360
:1015EC00C001BC1FFA2AFB2A022BBB09BC09BB0A8F
:1015FC000319BC0AC001C00ABE1F052B062B0F2BFA
:10160C00BD09BE09BD0A0319BE0A0130FF007F08DF
:10161C00C006C101C2013B083C040319162B172B51
:10162C004E2BBF01BF0A252B01300310BB0DBC0D87
:10163C00FF3E031D1B2B0130FF007F08BF07BC1FA3
:10164C00282B292B1A2B01300310C10DC20DFF3E84
:10165C00031D2A2B3C083E02031D362B3B083D0282
:10166C00031C392B3A2B412B3B08BD023C08031CB5
:10167C00BE03BE02411401300310BC0CBB0CFF3E78
:10168C00031D422B0130BF02031D4D2B4E2B292B6A
:10169C0040080319522B532B582BC109C209C10AFC
:1016AC000319C20A4208BC004108BB000800803084
:1016BC000A128A15D1210A128A15AD308400C6305F
:1016CC0083120313BE000408BF000B30C0003E0899
:1016DC00840083130008C100BE0A3F08840041083F
:1016EC008000BF0AC00B6D2B83160313B80138089A
:1016FC00AD3E8400831300080A128A1502220A12D6
:10170C008A150130FF007F0883160313B8070B30CE
:10171C003802031C922B932B7D2BC0300A128A1596
:10172C00D1210A128A15A0308400B9308312031318
:10173C00BE000408BF000D30C0003E0884008313B7
:10174C000008C100BE0A3F08840041088000BF0A9F
:10175C00C00BA32B83160313B8013808A03E8400DA
:10176C00831300080A128A1502220A128A15013004
:10177C00FF007F0883160313B8070D303802031CD3
:10178C00C82BC92BB32B08000310831203133D0D78
:10179C003E0DC4004408031DD42BD52BDE2B00308A
:1017AC00BE000030BD000030BC000030BB00412C3E
:1017BC003B08BF003C08C0003D08C1003E08C20009
:1017CC001F300310C20CC10CC00CBF0CFF3E031D1C
:1017DC00E72B3F08C300BD17FF30BB05FF30BC052E
:1017EC00FF30BD050030BE059630C402C41FFF2B70
:1017FC00002C1A2C4408803A973E0318062C072C10
:10180C00082CD52B01300310BE0CBD0CBC0CBB0C32
:10181C00FF3E031D092C0130FF007F08C407031D88
:10182C00182C192C082C312C20304402031C1F2C92
:10183C00202C2C2CD52B0130BF000310BB0DBC0D64
:10184C00BD0DBE0DBF0B232C0130C4024408031D7B
:10185C00302C312C212C43080319352C362C412CDF
:10186C00BB09BC09BD09BE09BB0A0319BC0A031993
:10187C00BD0A0319BE0A0800831203134F08BE00E9
:10188C004E08BD004D08BC004C08BB000A128A155E
:10189C00CA230A128A15831203133C08C6003B089C
:1018AC00C5000A30BB000030BC004608BE0045082D
:1018BC00BD000A128A1534220A128A1583120313E8
:1018CC003B08D0000A30BB000030BC004608BE000C
:1018DC004508BD000A128A15F4220A128A158312D1
:1018EC0003133C08C6003B08C5000A30BB0000309F
:1018FC00BC004608BE004508BD000A128A153422F9
:10190C000A128A15831203133B08D1000A30BB005C
:10191C000030BC004608BE004508BD000A128A15FE
:10192C00F4220A128A15831203133C08C6003B08E2
:10193C00C5000A30BB000030BC004608BE0045089C
:10194C00BD000A128A1534220A128A158312031357
:10195C003B08D2000A30BB000030BC004608BE0079
:10196C004508BD000A128A15F4220A128A15831240
:10197C0003133C08C6003B08C5004508D3008B3058
:10198C000A128A15D1210A128A15831203135308DD
:10199C00303E0A128A1502220A128A158312031388
:1019AC005208303E0A128A1502220A128A15831234
:1019BC0003135108303E0A128A1502220A128A15A4
:1019CC00831203135008303E0A128A1502220A129F
:1019DC008A150800F80078080319F52CF62C0A2D46
:1019EC00F31FF92CFA2C0A2D7009FA007109FB006F
:1019FC007209FC007309FD00FA0A0319FB0A0319AA
:101A0C00FC0A0319FD0A122D7308FD007208FC0074
:101A1C007108FB007008FA007308720471047004FA
:101A2C00031D192D1A2D232D0030F3000030F20068
:101A3C000030F1000030F000A72D9630F900332D66
:101A4C000130FF007F08F90701300310FD0CFC0C7E
:101A5C00FB0CFA0CFF3E031D2B2DFE307D05031DE8
:101A6C00382D392D262D552D0130FF007F08F90713
:101A7C000130FA07003003180130FB07003003185F
:101A8C000130FC07003003180130FD070130031052
:101A9C00FD0CFC0CFB0CFA0CFF3E031D4D2DFF3016
:101AAC007D05031D5A2D5B2D3A2D672D0130F90252
:101ABC000130F4000310FA0DFB0DFC0DFD0DF40BC1
:101ACC00602DFC1B6A2D6B2D712D023079020318D1
:101ADC00702D712D5C2D7918742D752D7D2DFF3089
:101AEC00FA05FF30FB057F30FC05FF30FD050310C8
:101AFC00F90C7908F400F501F601F7011830031020
:101B0C00F40DF50DF60DF70DFF3E031D852D740834
:101B1C00FA047508FB047608FC047708FD047808C1
:101B2C000319992D9A2D9F2DF31F9D2D9E2D9F2DC1
:101B3C00FD177D08F3007C08F2007B08F1007A08A1
:101B4C00F00008008312031323088039B000230827
:101B5C00A8002807B200A21FB42DB52DB62D321443
:101B6C0032080319BA2DBB2DCB2D320A031DBF2D04
:101B7C00C02DC82D0030A3000030A2000030A10001
:101B8C000030A000A217A301D32D0030A300003019
:101B9C00A2000030A1000030A00027088039B1005D
:101BAC00310830060319DB2DDC2DDD2D301727080D
:101BBC00A8002807B100A61FE42DE52DE62D311451
:101BCC0031080319EA2DEB2DFB2D310A031DEF2DE6
:101BDC00F02DF82D0030A7000030A6000030A50035
:101BEC000030A400A617A701032E0030A700003078
:101BFC00A6000030A5000030A40032083102031802
:101C0C00082E092E2F2E301F0C2E0D2E112E80304B
:101C1C00FF007F08B0063208B3003108B200330869
:101C2C00B1002008B3002408A0003308A400210848
:101C3C00B3002508A1003308A5002208B30026082C
:101C4C00A2003308A6002308B3002708A30033081A
:101C5C00A700B3013108A800A9012908AB0032087C
:101C6C002802AA00031CAB032B08803AFF0080302B
:101C7C007F02031D432E1A302A02031C462E472EC8
:101C8C007E2E831203132308220421042004031D37
:101C9C00502E522E0130532E0030B3000030A300D2
:101CAC000030A2000030A1000030A0003108B200CA
:101CBC00862E331C622E632E6A2E3308A800031066
:101CCC00280C0138B3006C2E0310B30C201C6F2EA3
:101CDC00702E712EB3170130A800230DA30CA20C8B
:101CEC00A10CA00CA80B732E0130FF007F08B207CB
:101CFC008312031331083202031C852E862E5F2EAD
:101D0C00301B892E8A2ED32E3208031D8E2E8F2E39
:101D1C00982E0030A3000030A2000030A10000304B
:101D2C00A000FF2F2408A007250803110318013E6B
:101D3C000319A12EA107260803110318013E03194C
:101D4C00A82EA207270803110318013E0319AF2E72
:101D5C00A307231CB22EB32E872F331CB62EB72EFF
:101D6C00BE2E3308A8000310280C0138B300C02E77
:101D7C000310B30C201CC32EC42EC52EB317013078
:101D8C00A800230DA30CA20CA10CA00CA80BC72E11
:101D9C000130FF007F08B207872F2308803AFF002D
:101DAC002708803A7F02031DE52E26082202031D18
:101DBC00E52E25082102031DE52E24082002031818
:101DCC00E82EE92E412FFF30A800FF30A900FF308C
:101DDC00AA00FF30AB002408AC002508AD00260893
:101DEC00AE002708AF002008AC022108031C210F0D
:101DFC00002F012FAD022208031C220F062F072FE4
:101E0C00AE022308031C230F0C2F0D2FAF022C083E
:101E1C00A8072D0803182D0F142F152FA9072E080E
:101E2C0003182E0F1A2F1B2FAA072F0803182F0A7F
:101E3C00AB072B08A3002A08A2002908A100280838
:101E4C00A0008030FF007F08B006B309B30A330846
:101E5C00031D312F322F4F2F0130A00700300318F4
:101E6C000130A107003003180130A207003003181D
:101E7C000130A3074F2F2408A0022508031C250FAF
:101E8C00A1022608031C260FA2022708031C270FF9
:101E9C00A3022308220421042004031D562F572FCC
:101EAC00832F3308031D5B2F5C2F832F0030A3007F
:101EBC000030A2000030A1000030A000FF2F013044
:101ECC00A8000310A00DA10DA20DA30DA80B672F48
:101EDC00B31F712F722F732F2014331C762F772F73
:101EEC007A2F0314B30D7C2F0310B30D3208031992
:101EFC00802F812F832F0130B202A21F862F872FB4
:101F0C00652FB101B31F8B2F8C2F9A2F33087F397C
:101F1C000319912F922F952FB101B10A9A2F201CE2
:101F2C00982F992F9A2F922F310803199E2F9F2F9C
:101F3C00D32F0130A007003003180130A107003067
:101F4C0003180130A207003003180130A307231C2B
:101F5C00B02FB12FD32F2008A8002108A9002208E8
:101F6C00AA002308AB000130AC002B0DAB0CAA0C63
:101F7C00A90CA80CAC0BBB2F2B08A3002A08A200A1
:101F8C002908A1002808A000320A0319CE2FCF2F50
:101F9C00D32F0130FF007F08B207320A0319D72F65
:101FAC00D82FDD2F3208031DDC2FDD2FEB2F003057
:101FBC00A3000030A2000030A1000030A0003208C5
:101FCC00031DE92FEA2FEB2FB001321CEE2FEF2F60
:101FDC00F12FA217F52F7F30FF007F08A2053208E2
:101FEC00A8000310280CA300B01FFD2FFE2FFF2FFD
:041FFC00A31708001F
:02400E00BA3FB7
:00000001FF
