:060000000A128A110E280D
:10000800FE00030EF0000A08F1007F08F2000A1251
:100018008A1164290A128A11112883132A30FD00D3
:100028000130FE008B30FF00203084000A128A1154
:100038007C210A128A11AE01AF0183010A128A11CA
:100048003A29F801F41F29282A283128F309F40944
:10005800F30A0319F40AF801F80AF61F34283528B8
:100068003E28F509F609F50A0319F60A0130FF00DA
:100078007F08F806F901FA01730874040319452882
:1000880046287D28F701F70A542801300310F30D9C
:10009800F40DFF3E031D4A280130FF007F08F707D3
:1000A800F41F57285828492801300310F90DFA0D74
:1000B800FF3E031D592874087602031D652873083E
:1000C8007502031C6828692870287308F5027408EB
:1000D800031CF603F602791401300310F40CF30C38
:1000E800FF3E031D71280130F702031D7C287D287F
:1000F800582878080319812882288728F909FA09D5
:10010800F90A0319FA0A7A08F4007908F3000800D2
:10011800F801F61F902891289828F509F609F50A9C
:100128000319F60AF801F80AF41F9B289C28A1284D
:10013800F309F409F30A0319F40A73087404031998
:10014800A628A728D628F701F70AB52801300310F2
:10015800F30DF40DFF3E031DAB280130FF007F08AF
:10016800F707F41FB828B928AA2874087602031DCF
:10017800BF2873087502031CC228C328C92873083E
:10018800F5027408031CF603F60201300310F40CA0
:10019800F30CFF3E031DCA280130F702031DD528C2
:1001A800D628B92878080319DA28DB28E028F509C1
:1001B800F609F50A0319F60A7608F4007508F3003B
:1001C80008000A30F3000030F400831203132F08EC
:1001D800AA00AB012A08F5002B08F6000A128A11BA
:1001E80025200A128A11730883120313AC000A30FF
:1001F800F3000030F4002F08AA00AB012A08F5002C
:100208002B08F6000A128A118C200A128A11730828
:1002180083120313AD0087142C08203E8400831337
:1002280000088600213083120313AB007530AA0042
:10023800AA0B1C29AB0B1C29212983120313871035
:1002480007152D08203E84008313000886002130FE
:1002580083120313AB007530AA00AA0B3129AB0B2C
:100268003129362983120313071108008316031353
:10027800860187018B170B178B16073081003D30DD
:100288008312031381006430831203132E06031DA7
:100298004E294F2954290130FF007F08AF07AE01CE
:1002A80064302F06031D59295A295B29AF010A1208
:1002B8008A11E5200A128A1147290A128A110E2882
:1002C8000B1D672968296F290130FF007F088312F9
:1002D8000313AE070B117208FF0071088A00700E35
:1002E8008300FE0E7E0E09007E088A007F088200C9
:1002F8000A128A1178210A128A118000840A0408D5
:100308007D0603190034FF0A0319FE0A7C29C0344C
:10031800F934A434B034993492348234F8348034C3
:0203280090340F
:02400E00BA3FB7
:00000001FF
