:060000000A128A11FC2F18
:100F86008316031385018701831203130510851445
:100F9600F301F4018312031307150230F200453002
:100FA600F100A930F000F00BD62FF10BD62FF20B83
:100FB600D62FDD2F8312031307114130F100EE30D7
:100FC600F000F00BE42FF10BE42F00000130F307E3
:100FD6000318F40A0030F4070430740200300319D1
:100FE6007302031CF72FF82FCD2FCB2F0A128A116D
:0A0FF600002883010A128A11C32F9C
:02400E00BA3FB7
:00000001FF
