:060000000A128A110C280F
:10000800FE00030EF2000A08F3000A128A111528EE
:100018000A128A110F28F001F10183010A128A11CC
:100028003E280B1D1828192820280B110130F0072D
:100038000318F10A0030F1074C3070067104031DF3
:10004800262827282B28FF30831203138600983090
:1000580070067104031D31283228372883120313D0
:100068008601F001F10173088A00720E8300FE0E0A
:100078007E0E09008B170B178B1607308316031398
:100088008100860183120313860149280A128A1106
:020098000C2832
:02400E00BA3FB7
:00000001FF
